:030000000204BE39
:10000300E5207003F4F52054B8A2D0E52033F520A1
:1000130022E5217009E5227005F4F521F52254D07B
:10002300A2D0E52130E301B333F521F5F0E5223326
:10003300F522C5F022C0E0C0D0D2D4C2D3D295D22B
:10004300961200EF782112008A78C212008A781182
:1000530012008A782012008A780912008A1200D1CD
:10006300780812008A780C12008AD0D0D0E02212CD
:1000730000A0227F08E8C2B120E704C2B08002D208
:10008300B0D2B123DFF022C0E0C0D0D2D4C2D3C2F9
:1000930097C296120076D296D0D0D0E022C0E0C0AC
:1000A300D0D2D4C2D3D297C296120076D296D0D0F1
:1000B300D0E022C0E0C0D0D2D4C2D3EA4440F81288
:1000C300008AE94480F812008AD0D0D0E022C0E050
:1000D300C0D0D2D4C2D379007A007B067A54780098
:1000E3001200A0DAF9DBF5D0D0D0E0227D0A7EFF42
:1000F3007FFFDFFEDEFADDF6221F111F091F010954
:10010300131D11150A1C041F1C15121F1517101798
:10011300181F151F1C141F020F0022220106600264
:10012300264006300246200360040E20064408E001
:1001330022600402E062200E80446004262007202F
:10014300232002701200D11203A21204881203AFFB
:1001530012033B12032612033B7523287524001256
:10016300028012016C1203AF22E5308531F0900159
:10017300740201CC0201830201CC0201CC0201CC46
:10018300E502700D850283850282740093F90201F2
:10019300979501F9850283850282E993FAE924019F
:1001A30093FBE523FCE524FD1201CDEA6E9A9E60E4
:1001B300030201C0EB6F9B9F60060201C00201CCEA
:1001C300E5239401F5230201CC22EAC0E0EBC0E071
:1001D3007E007F007A047B04ED75F004849001E4D3
:1001E300730201F90202000202070202100202195D
:1001F30002022202022B7800ECF90202347804ECAA
:10020300F90202347800EC2412F90202347804EC87
:100213002412F90202347800EC2424F9020234781F
:1002230004EC2424F90202347800EC2436F90202A7
:1002330034E825F0F8744029F9E7F9EA75F0028407
:100243009002477302025602024D12027BEE33FE06
:1002530002025F12027BEF33FF02025FED2401FD16
:10026300DB09EC2401FCDA060202740201DB020161
:10027300D9D0E0FBD0E0FA22E913D8FD22C0D0D2D6
:10028300D4C2D379127A001200B678C01200727CFD
:100293000A7840120072DCF97840120072AB287CB5
:1002A300C079127A011200B678FF12007278001238
:1002B3000072EBF987E0A2E392E792E6A2E292E50D
:1002C30092E4A2E192E392E2A2E092E1A8E01200BA
:1002D30072A8E0120072EBF987E0A2E492E092E1E7
:1002E300A2E592E292E3A2E692E492E5A2E792E625
:1002F300A8E0120072A8E0120072AB29DCB4780007
:1003030012007278FF12007279127A021200B67824
:10031300031200727C0A7802120072DCF97803126D
:10032300007222E525F502E526F502E527F502E54B
:1003330028F502E529F5022212000375F00784E58A
:10034300F09003487302037B02035D02036202031E
:100353006702036C02037102037690011F801E90F3
:1003630001228019900127801490012C800F9001A5
:1003730035800A90013E800590011A80008583250F
:1003830085822693F5F012000384E5F0F52775F0D6
:1003930002A42401F993F528E9240193F52922798C
:1003A30024A8407600E82401F8D9F822C0D0D2D49A
:1003B300C2D379217A001200B67C057B40EBF98722
:1003C300E0A2E392E792E6A2E292E592E4A2E1924E
:1003D300E392E2A2E092E1A8E0120072A8E0120028
:1003E30072EBF987E0A2E492E092E1A2E592E29255
:0D03F300E3A2E692E492E5A2E792E6A8E01C
:10040000120072A8E0120072EB2401FBDCB2792129
:100410007A011200B67E027A017C0A7D21EDF91282
:1004200000B6EBF987E0A2E392E792E6A2E292E55A
:1004300092E4A2E192E392E2A2E092E1A8E012004B
:1004400072A8E0120072EDF9EA2401FA1200B6EB8C
:10045000F987E0A2E492E092E1A2E592E292E3A2BF
:10046000E692E492E5A2E792E6A8E0120072A8E024
:10047000120072EB2401FBED2402FDEA9401FADC88
:100480009C7A03DE94D0D022C0D0D2D4C2D37920BB
:100490007A001200B67B057C1678FF120072DCF938
:1004A0007920EA2401FA1200B6DBEC79207A0512F1
:1004B00000B67B167801120072DBF9D0D02275816C
:1004C000901204CA1200380204D822C0E0C0D0D270
:1004D000D3C2D4D0D0D0E022D2D4C2D379017A0111
:0A04E00079007A001200B6120147FD
:00000001FF
