:03000000020218E1
:10000300C0E0C0D0D2D4C2D3D295D2961200BA786F
:100013002112005578C2120055781312005578202A
:1000230012005578091200557808120055780C1201
:10003300005512009CD0D0D0E02212006B227F0822
:10004300E8C2B120E704C2B08002D2B0D2B123DF4C
:10005300F022C0E0C0D0D2D4C2D3C297C29612005D
:1000630041D296D0D0D0E022C0E0C0D0D2D4C2D307
:10007300D297C296120041D296D0D0D0E022C0E0EF
:10008300C0D0D2D4C2D3EA4440F8120055E9448028
:10009300F8120055D0D0D0E022C0E0C0D0D2D4C2F4
:1000A300D379007A007B067A54780012006BDAF970
:1000B300DBF5D0D0D0E0227D0A7EFF7FFFDFFEDEBE
:1000C300FADDF622091F0109131D11150A1C041F6D
:1000D3001C15121F15171017181F151F1C141F1F8F
:1000E300111F0FF0666606062640063046200360A1
:1000F3000E20064408E0226002E062200E80446085
:10010300262007202320027012009C12011222D203
:10011300D4C2D379177A00120081AB207C05EBF9A6
:10012300E7A2E392E792E6A2E292E592E4A2E192E9
:10013300E392E2A2E092E1F812003DF812003DE7FB
:10014300A2E492E092E1A2E592E292E3A2E692E4D3
:1001530092E5A2E792E6F812003DF812003DEB2487
:1001630001FBDCBA79177A011200817C0AEBF9E70B
:10017300A2E392E792E6A2E292E592E4A2E192E39D
:1001830092E2A2E092E1F812003DF812003D7917E5
:100193007A02120081EBF9E7A2E492E092E1A2E590
:1001A30092E292E3A2E692E492E5A2E792E6F812E3
:1001B300003DF812003DEB2401FBDCB179177A0313
:1001C3001200817C0AEBF9E7A2E392E792E6A2E24E
:1001D30092E592E4A2E192E392E2A2E092E1F812C4
:1001E300003DF812003D79177A04120081EBF9E71C
:1001F300A2E492E092E1A2E592E292E3A2E692E423
:1002030092E5A2E792E6F812003DF812003DEB24D6
:1002130001FBDCB122758160120224120003020289
:100223003222C0E0C0D0D2D3C2D4D0D0D0E022D2C8
:10023300D4C2D379017A017455120081F812003DBA
:0502430080F512010B23
:00000001FF
