:0300000002008873
:10000300D295D29612007275202112004E7520C22D
:1000130012004E75201312004E75202012004E75EB
:10002300200912004E75200812004E75200C120094
:100033004E22120060227908E520C2B120E704C2F3
:10004300B08002D2B0D2B123D9F022C0E0C0D0C276
:1000530097C296120039D296D0D0D0E022C0E0C029
:10006300D0D297C296120039D296D0D0D0E0227C5B
:100073000A7AFF79FFD9FEDAFADCF62274107410DB
:100083007410741022758160120094120003020030
:10009300A222C0E0C0D0D2D3C2D4D0D0D0E0227448
:0C00A30055F5200312003580F812007F94
:00000001FF
