:03000000020715DF
:04000B0012055C225C
:10000F00E5207003F4F52054B8A2D0E52033F52095
:10001F0022E5217009E5227005F4F521F52254D06F
:10002F00A2D0E52130E301B333F521F5F0E522331A
:10003F00F522C5F022C0E0C0D0D2D4C2D3D295D21F
:10004F00961200FB782112009678C2120096781152
:10005F00120096782012009678091200961200DD91
:10006F007808120096780C120096D0D0D0E02212A9
:10007F0000AC227F08E8C2B120E704C2B08002D2F0
:10008F00B0D2B123DFF022C0E0C0D0D2D4C2D3C2ED
:10009F0097C296120082D296D0D0D0E022C0E0C094
:1000AF00D0D2D4C2D3D297C296120082D296D0D0D9
:1000BF00D0E022C0E0C0D0D2D4C2D3EA4440F8127C
:1000CF000096E94480F8120096D0D0D0E022C0E02C
:1000DF00C0D0D2D4C2D379007A007B067A5478008C
:1000EF001200ACDAF9DBF5D0D0D0E0227D0A7EFF2A
:1000FF007FFFDFFEDEFADDF6221F111F091F010948
:10010F00131D11150A1C041F1C15121F151710178C
:10011F00181F151F1C141F020F0022220106600258
:10012F00264006300246200360040E20064408E0F5
:10013F0022600402E062200E804460042620072023
:10014F0023200270740FF533C2AFC28C758901740E
:10015F00DCF58A7411F58CD2A9D28CD2AF1200DDE6
:10016F001204401205261204651203D31203B912AA
:10017F0003D375230775240A12030F12030F1201FD
:10018F00CA1205BBAC23AD2412028DAA2DAB2EEAE9
:10019F006EFEEB6FFFAC23AD2412068C120465AC20
:1001AF0023AD2412028DAA2DAB2EEE9AFEEF9BFFEC
:1001BF00AC23AD2412068C02018A22E5308531F082
:1001CF00F8A9F099600DE530F531E875F003A490CA
:1001DF0001E57302028C02028C0201F402020F028B
:1001EF00022A02026BE5239401FCE524FDE52CF9BC
:1001FF0012065640025006E5239401F52302028CA5
:10020F00E5232401FCE524FDE52CF91206564002F6
:10021F005006E5232401F52302028CE523FCE52497
:10022F00FDE52C700F852A83852B82740093940132
:10023F00F90202469501F91206564002501BE9F5E4
:10024F002C852A83852B82E52C75F002A42401F9D5
:10025F0093F528E9240193F52902028CE523FCE5A7
:10026F00242401FDE52CF912065640025009E5241D
:10027F002401F52402028C752F0102028C22E8C0A2
:10028F00E0E9C0E0EAC0E0EBC0E0EDC0E07A04D006
:10029F00E0ADE0C0E07B04ED75F00884A9F00975CE
:1002AF00F012A42CF8744028F8EA1475F002847543
:1002BF00F003A49002C6730202DC0202CCE9C0E094
:1002CF00E633D9FDD0E0F9EE33FE0202ECE9C0E0EF
:1002DF00E633D9FDD0E0F9EF33FF0202EC0DDB0678
:1002EF000CDA060202FB0202A602029ED0E0D0E068
:1002FF00FBD0E0FAD0E0F9D0E0F822E913D8FD22E4
:10030F00C0D0D2D4C2D379127A001200C278C012F0
:10031F00007E7C0A784012007EDCF978C012007EE5
:10032F007B287CC079127A011200C278FF12007EFE
:10033F00780012007E7C02EBF987E0A2E492E09253
:10034F00E1A2E592E292E3A2E692E492E5A2E792BD
:10035F00E6A8E012007EA8E012007EEBF987E0A28B
:10036F00E392E792E6A2E292E592E4A2E192E392AF
:10037F00E2A2E092E1A8E012007EA8E012007E7BEC
:10038F0029DCB4780012007E78FF12007E79127A91
:10039F00021200C2780312007E7C0A780212007EDD
:1003AF00DCF9780312007ED0D022E525782AF6E515
:1003BF0026782BF6E527782CF6E528782DF6E52913
:1003CF00782EF62212000F75F00784E5F075F00312
:1003DF00A49003E4730204170203F90203FE02045C
:1003EF000302040802040D02041290012B801E90D8
:0E03FF00012E80199001338014900138800F78
:10040D00900141800A90014A800590012680008567
:10041D008325858226740093F5F012000F84E5F094
:10042D00F52775F002A42401F993F528E924019329
:10043D00F52922794C78407B037A0476FF08DAFBA4
:10044D00790A760008D9FB7A0476FF08DAFBDBE936
:10045D007A1276FF08DAFB22C0D0D2D4C2D379212A
:10046D007A001200C27D217C0A7B400B0B0B0BEB3B
:10047D00F987E0A2E092E792E6A2E192E592E4A28A
:10048D00E392E192E0A2E292E292E3A8E012007E12
:10049D00A8E012007E0B0DDCD679217A011200C284
:1004AD007E02EB2408FB7C0A7D21EDF91200C2EBE4
:1004BD00F987E0A2E792E092E1A2E692E292E3A24E
:1004CD00E492E692E7A2E592E592E4A8E012007EBE
:1004DD00A8E012007EEDF9EA2401FA1200C2EBF950
:1004ED0087E0A2E092E792E6A2E192E592E4A2E330
:1004FD0092E192E0A2E292E292E3A8E012007EA8DD
:10050D00E012007EEB2401FBED2402FDEA9401FADA
:10051D00DC987A03DE8CD0D022C0D0D2D4C2D3796D
:10052D00207A001200C27B057C1678FF12007EDC5B
:10053D00F97920EA2401FA1200C2DBEC79207A0560
:10054D001200C27B16780112007EDBF9D0D022C0DA
:10055D00E0C0D0E8C0E0E9C0E0C28CE5322401F58E
:10056D0032F8E533F95899602574000205A42090FE
:10057D001820911A20920820930A74000205A47481
:10058D00010205A474020205A474030205A47400FB
:10059D00F53274040205A4F53074DCF58A7411F596
:1005AD008CD28CD0E0F9D0E0F8D0D0D0E0329005EC
:1005BD00C5E52F75F003A4730205F20205CBAC233C
:1005CD00AD2412028DAA2DAB2EEA6EFEEB6FFFACA1
:1005DD0023AD2412068C1203B91203D375230775AC
:1005ED002400752F00227840741C28F8F97A0A7BB4
:1005FD00FFE75BFB09DAFAEB7C087D001350031271
:10060D000612DCF822C0E0E9C0E0E89412E97407B4
:10061D00C39DFA120646EDFA1A12064EE720E003C4
:10062D0030E004D3020638C3020638E65E13FEE658
:10063D005F6EF6D0E0F9D0E0227400D333DAFCFE21
:10064D00227400D313DAFCFF22852A83852B82E9DD
:10065D0075F002A4240193FAE975F002A424029323
:10066D00FB12028DEA6E9A9E6003020683EB6F9B6E
:10067D009F6007020683C302068BD302068B22E816
:10068D00C0E0E9C0E0EAC0E0EBC0E0EDC0E07A0414
:10069D00D0E0ADE0C0E07B04ED75F00884A9F00971
:1006AD0075F012A42CF8744028F8EA1475F0028441
:1006BD0075F003A49006C5730206E10206CBE9C0EE
:1006CD00E0E633D9FDF6D0E0F9EE33FEE613D9FDC1
:1006DD00F60206F7E9C0E0E633D9FDF6D0E0F9EF12
:1006ED0033FFE613D9FDF60206F70DDB060CDA062D
:1006FD000207060206A502069DD0E0D0E0FBD0E081
:10070D00FAD0E0F9D0E0F82275819012004402078A
:10071D001ED2D4C2D379017A0179007A001200C2B7
:03072D0012015363
:00000001FF
