:030000000200D02B
:10000300C0E0C0D0D2D4C2D3D295D2961200BA786F
:100013002112005578C2120055781312005578202A
:1000230012005578091200557808120055780C1201
:10003300005512009CD0D0D0E02212006B227F0822
:10004300E8C2B120E704C2B08002D2B0D2B123DF4C
:10005300F022C0E0C0D0D2D4C2D3C297C29612005D
:1000630041D296D0D0D0E022C0E0C0D0D2D4C2D307
:10007300D297C296120041D296D0D0D0E022C0E0EF
:10008300C0D0D2D4C2D3EA4440F8120055E9448028
:10009300F8120055D0D0D0E022C0E0C0D0D2D4C2F4
:1000A300D379007A007B067A54780012006BDAF970
:1000B300DBF5D0D0D0E0227D0A7EFF7FFFDFFEDEBE
:1000C300FADDF622741074107410741022758160B6
:1000D3001200DC1200030200EA22C0E0C0D0D2D337
:1000E300C2D4D0D0D0E022D2D4C2D379017A017461
:0D00F30055120081F812003D80F51200C783
:00000001FF
