:030000000209D61C
:04000B001205762242
:10000F00E5207003F4F52054B8A2D0E52033F52095
:10001F0022E5217009E5227005F4F521F52254D06F
:10002F00A2D0E52130E301B333F521F5F0E522331A
:10003F00F522C5F022C0E0C0D0D2D4C2D3D295D21F
:10004F00961200FB782112009678C2120096781152
:10005F00120096782012009678091200961200DD91
:10006F007808120096780C120096D0D0D0E02212A9
:10007F0000AC227F08E8C2B120E704C2B08002D2F0
:10008F00B0D2B123DFF022C0E0C0D0D2D4C2D3C2ED
:10009F0097C296120082D296D0D0D0E022C0E0C094
:1000AF00D0D2D4C2D3D297C296120082D296D0D0D9
:1000BF00D0E022C0E0C0D0D2D4C2D3EA4440F8127C
:1000CF000096E94480F8120096D0D0D0E022C0E02C
:1000DF00C0D0D2D4C2D379007A007B067A5478008C
:1000EF001200ACDAF9DBF5D0D0D0E0227D0A7EFF2A
:1000FF007FFFDFFEDEFADDF622F888F890F88090B9
:10010F00C8B888A8503820F838A848F8A8D808D810
:10011F0081F8A8F83828F8020F00222201066002A1
:10012F00264006300246200360040E20064408E0F5
:10013F0022600402E062200E804460042620072023
:10014F0023200270740FF533753400753500C2AF7C
:10015F00C28C75890174DCF58A7411F58CD2A9D221
:10016F008CD2AF1200DD12045A12054012047F1216
:10017F0003ED1203D31203ED752307752400120349
:10018F00251203251201E61205D212060A1207B331
:10019F001207F0120900E52FC394026036AC23ADAD
:1001AF00241202A3AA2DAB2EEA6EFEEB6FFFAC2337
:1001BF00AD2412072A12047FAC23AD241202A3AA86
:1001CF002DAB2EEE9AFEEF9BFFAC23AD2412072A28
:1001DF0002019012091B22E5308531F0F8A9F09940
:1001EF00600DE530F531E875F003A490020173025C
:1001FF0002A20202A202021002022902024202021B
:10020F0081E52314FCE524FDE52CF91206F44002E8
:10021F005005E52314F5230202A2E52304FCE5248F
:10022F00FDE52CF91206F440025005E52304F523F1
:10023F000202A2E523FCE524FDE52C700E852A833E
:10024F00852B8274009314F902025C14F91206F4E0
:10025F004002501BE9F52C852A83852B82E52C75EE
:10026F00F002A42401F993F52DE9240193F52E0250
:10027F0002A2E523FCE5242401FDE52CF91206F486
:10028F0040025009E5242401F5240202A2752F0132
:10029F000202A222E8C0E0E9C0E0EAC0E0EBC0E061
:1002AF00EDC0E07A04D0E0ADE0C0E07B04ED75F086
:1002BF000884A9F00975F012A42CF8744028F8EA04
:1002CF001475F0028475F003A49002DC730202F23D
:1002DF000202E2E9C0E0E633D9FDD0E0F9EE33FEE9
:1002EF00020302E9C0E0E633D9FDD0E0F9EF33FFB6
:1002FF000203020DDB060CDA060203110202BC0236
:10030F0002B4D0E0D0E0FBD0E0FAD0E0F9D0E0F8D2
:10031F0022E913D8FD22C0D0D2D4C2D379127A00E9
:10032F001200C278C012007E7C0A784012007EDC78
:10033F00F978C012007E7B287CC079127A011200F6
:10034F00C278FF12007E780012007E7C02EBF987E4
:10035F00E0A2E792E092E1A2E692E292E3A2E492B7
:10036F00E692E7A2E592E592E4A8E012007EA8E00B
:10037F0012007EEBF987E0A2E092E792E6A2E1920B
:10038F00E592E4A2E392E192E0A2E292E292E3A884
:10039F00E012007EA8E012007E7B29DCB07800120C
:1003AF00007E78FF12007E79127A021200C2780363
:1003BF0012007E7C0A780212007EDCF978031200AC
:1003CF007ED0D022E525782AF6E526782BF6E5278C
:1003DF00782CF6E528782DF6E529782EF6221200EE
:1003EF000F75F00784E5F075F003A49003FE730218
:0E03FF00043102041302041802041D02042239
:10040D0002042702042C90012B801E90012E8019CE
:10041D009001338014900138800F900141800A9033
:10042D00014A8005900126800085832585822674EA
:10043D000093F5F012000F84E5F0F52775F002A496
:10044D002401F993F528E9240193F52922794C78B3
:10045D00407B037A0476FF08DAFB790A760008D927
:10046D00FB7A0476FF08DAFBDBE97A1276FF08DA0D
:10047D00FB22C0D0D2D4C2D379217A001200C27D22
:10048D00217C0A7B400B0B0B0BEBF987E0A2E09272
:10049D00E792E6A2E192E592E4A2E392E192E0A274
:1004AD00E292E292E3A8E012007EA8E012007E0B39
:1004BD000DDCD679217A011200C27E02EB2408FBF5
:1004CD007C0A7D21EDF91200C2EBF987E0A2E792DB
:1004DD00E092E1A2E692E292E3A2E492E692E7A232
:1004ED00E592E592E4A8E012007EA8E012007EED10
:1004FD00F9EA2401FA1200C2EBF987E0A2E092E7D3
:10050D0092E6A2E192E592E4A2E392E192E0A2E208
:10051D0092E292E3A8E012007EA8E012007EEB24A6
:10052D0001FBED2402FDEA9401FADC987A03DE8CDE
:10053D00D0D022C0D0D2D4C2D379207A001200C23A
:10054D007B057C1678FF12007EDCF97920EA240108
:10055D00FA1200C2DBEC79207A051200C27B167804
:10056D000112007EDBF9D0D022C0E0C0D0E8C0E09F
:10057D00E9C0E0C28CE5322401F532F8E533F958D3
:10058D0099602030901830911A30920830930A7487
:10059D00000205BB74010205BB74020205BB7403A6
:1005AD000205BB7400F532F53174040205BBF5305C
:1005BD0074DCF58A7411F58CD28CD0E0F9D0E0F8AA
:1005CD00D0D0D0E0329005DCE52F75F003A4730296
:1005DD0006090205E2AC23AD241202A3AA2DAB2E0F
:1005ED00EA6EFEEB6FFFAC23AD2412072A1203D384
:1005FD001203ED752307752400752F00227400C0BA
:10060D00E07840742828F8E8F97A0A7BFFE75BFB6D
:10061D0009DAFAEB60027012E8C39440C3940460E7
:10062D00142440940EF8F9020614120646D0E00484
:10063D00C0E0020614D0E0FF22E8C0E0E9C0E0EA25
:10064D00C0E0EBC0E01206E77C0A75F004E8C39445
:10065D0012F97407C39DFA1206D4EDFA1206DCE8FE
:10066D00C39440C395F0600BE720E00330E004D362
:10067D00020684C3020684E65E13FEE65F6EF6E8AC
:10068D00C39440C395F06027E9C39440C395F060CF
:10069D00027007C3E713F70206BCE7FAE99412F9F3
:1006AD00E713EA13FAC3E713F7E92412F9EAF70897
:1006BD0005F0DC030206C702065AD0E0FBD0E0FAD3
:1006CD00D0E0F9D0E0F8227400D313DAFCFE22EA70
:1006DD0060067400D333DAFCFF22C379087D00EB8A
:1006ED001340030DD9FA22852A83852B82E975F0F3
:1006FD0002A4240193FAE975F002A4240293FB12DB
:10070D0002A3EA6E9A9E6003020721EB6F9B9F6026
:10071D0007020721C3020729D302072922E8C0E0F7
:10072D00E9C0E0EAC0E0EBC0E0EDC0E07A04D0E063
:10073D00ADE0C0E07B04ED75F00884A9F00975F01B
:10074D0012A42CF8744028F8EA1475F0028475F0A0
:10075D0003A49007637302077F020769E9C0E0E60F
:10076D0033D9FDF6D0E0F9EE33FEE613D9FDF602EE
:10077D000795E9C0E0E633D9FDF6D0E0F9EF33FF98
:10078D00E613D9FDF60207950DDB060CDA06020716
:10079D00A402074302073BD0E0D0E0FBD0E0FAD043
:1007AD00E0F9D0E0F822EF75F003A49007BC7302D6
:1007BD0007CB0207D00207D50207DA0207DF780060
:1007CD000207E478010207E478030207E4780502E2
:1007DD0007E478080207E4E53428F534E5353400FC
:1007ED00F53522C0D0E53575F006A475F00A84FA0A
:0E07FD00E5F0F9E53475F00A84FFE5F029F91E
:10080B0075F00A842AFAE5F0F9EF3400FFE5357547
:10081B00F005A42A75F00A84FBE5F0FAEF75F00AEF
:10082B0084FFE5F02AFA75F00A842BFBE5F0FAEF6A
:10083B003400FFE53575F002A42B75F00A84FCE556
:10084B00F0FBEF75F00A84FFE5F02BFB75F00A84E3
:10085B002CFCE5F0FBEF3400FFE9C0E0EAC0E0EB75
:10086B00C0E0ECC0E0D2D4C2D39001087B00D0E052
:10087B00793C7A001200C275F003A4FC93F81200C5
:10088B007E0CEC93F812007E0CEC93F812007ED0E9
:10089B00E079407A001200C275F003A4FC93F812C1
:1008AB00007E0CEC93F812007E0CEC93F812007E99
:1008BB00D0E079447A001200C275F003A4FC93F8DF
:1008CB0012007E0CEC93F812007E0CEC93F81200E5
:1008DB007ED0E079487A001200C275F003A4FC9335
:1008EB00F812007E0CEC93F812007E0CEC93F812CD
:1008FB00007ED0D0227840740428F87B007C0AE676
:10090B004BFB08DCFAEB54F060057000752F0222EC
:10091B00C0D01200DD79047A011200C27C0E78FF80
:10092B0012007EDCF97B05780012007EDBF97C057A
:10093B0078FF12007EDCF97C0578F012007EDCF982
:10094B007C0578FF12007EDCF97B05780012007EB7
:10095B00DBF97C0578FF12007EDCF97C0578CF1281
:10096B00007EDCF97C05780F12007EDCF979087AC1
:10097B00021200C27C0578FF12007EDCF97B0A783C
:10098B000012007EDBF97C0578FF12007EDCF97C1F
:10099B0005780F12007EDCF97C0578FF12007EDCF7
:1009AB00F97B05780012007EDBF97C0578FF1200DD
:1009BB007EDCF97C0578F312007EDCF97C0578F09F
:1009CB0012007EDCF90209D0D0D022758190120082
:1009DB00440209DFD2D4C2D379017A0179007A00BB
:0609EB001200C2120153CC
:00000001FF
